{
  "contractName": "AddRequest",
  "abi": [
    {
      "constant": false,
      "inputs": [
        {
          "name": "index",
          "type": "uint256"
        }
      ],
      "name": "returnById",
      "outputs": [
        {
          "name": "",
          "type": "address"
        },
        {
          "name": "",
          "type": "string"
        },
        {
          "name": "",
          "type": "string"
        },
        {
          "name": "",
          "type": "uint256"
        }
      ],
      "payable": false,
      "stateMutability": "nonpayable",
      "type": "function"
    },
    {
      "constant": true,
      "inputs": [
        {
          "name": "",
          "type": "uint256"
        }
      ],
      "name": "requestDocs",
      "outputs": [
        {
          "name": "owner",
          "type": "address"
        },
        {
          "name": "title",
          "type": "string"
        },
        {
          "name": "description",
          "type": "string"
        },
        {
          "name": "countEth",
          "type": "uint256"
        }
      ],
      "payable": false,
      "stateMutability": "view",
      "type": "function"
    },
    {
      "constant": false,
      "inputs": [
        {
          "name": "title",
          "type": "string"
        },
        {
          "name": "description",
          "type": "string"
        },
        {
          "name": "countEth",
          "type": "uint256"
        }
      ],
      "name": "addUser",
      "outputs": [],
      "payable": false,
      "stateMutability": "nonpayable",
      "type": "function"
    }
  ],
  "bytecode": "0x6060604052341561000f57600080fd5b61088f8061001e6000396000f300606060405260043610610057576000357c0100000000000000000000000000000000000000000000000000000000900463ffffffff16806322ff9d0a1461005c5780636026d1541461019e578063964f59371461031a575b600080fd5b341561006757600080fd5b61007d60048080359060200190919050506103c3565b604051808573ffffffffffffffffffffffffffffffffffffffff1673ffffffffffffffffffffffffffffffffffffffff1681526020018060200180602001848152602001838103835286818151815260200191508051906020019080838360005b838110156100f95780820151818401526020810190506100de565b50505050905090810190601f1680156101265780820380516001836020036101000a031916815260200191505b50838103825285818151815260200191508051906020019080838360005b8381101561015f578082015181840152602081019050610144565b50505050905090810190601f16801561018c5780820380516001836020036101000a031916815260200191505b50965050505050505060405180910390f35b34156101a957600080fd5b6101bf6004808035906020019091905050610571565b604051808573ffffffffffffffffffffffffffffffffffffffff1673ffffffffffffffffffffffffffffffffffffffff16815260200180602001806020018481526020018381038352868181546001816001161561010002031660029004815260200191508054600181600116156101000203166002900480156102845780601f1061025957610100808354040283529160200191610284565b820191906000526020600020905b81548152906001019060200180831161026757829003601f168201915b50508381038252858181546001816001161561010002031660029004815260200191508054600181600116156101000203166002900480156103075780601f106102dc57610100808354040283529160200191610307565b820191906000526020600020905b8154815290600101906020018083116102ea57829003601f168201915b5050965050505050505060405180910390f35b341561032557600080fd5b6103c1600480803590602001908201803590602001908080601f0160208091040260200160405190810160405280939291908181526020018383808284378201915050505050509190803590602001908201803590602001908080601f016020809104026020016040519081016040528093929190818152602001838380828437820191505050505050919080359060200190919050506105ce565b005b60006103cd6106c2565b6103d56106c2565b6000806000868154811015156103e757fe5b906000526020600020906004020190508060000160009054906101000a900473ffffffffffffffffffffffffffffffffffffffff1681600101826002018360030154828054600181600116156101000203166002900480601f0160208091040260200160405190810160405280929190818152602001828054600181600116156101000203166002900480156104be5780601f10610493576101008083540402835291602001916104be565b820191906000526020600020905b8154815290600101906020018083116104a157829003601f168201915b50505050509250818054600181600116156101000203166002900480601f01602080910402602001604051908101604052809291908181526020018280546001816001161561010002031660029004801561055a5780601f1061052f5761010080835404028352916020019161055a565b820191906000526020600020905b81548152906001019060200180831161053d57829003601f168201915b505050505091509450945094509450509193509193565b60008181548110151561058057fe5b90600052602060002090600402016000915090508060000160009054906101000a900473ffffffffffffffffffffffffffffffffffffffff1690806001019080600201908060030154905084565b600080548060010182816105e291906106d6565b916000526020600020906004020160006080604051908101604052803373ffffffffffffffffffffffffffffffffffffffff16815260200187815260200186815260200185815250909190915060008201518160000160006101000a81548173ffffffffffffffffffffffffffffffffffffffff021916908373ffffffffffffffffffffffffffffffffffffffff1602179055506020820151816001019080519060200190610692929190610708565b5060408201518160020190805190602001906106af929190610708565b5060608201518160030155505050505050565b602060405190810160405280600081525090565b815481835581811511610703576004028160040283600052602060002091820191016107029190610788565b5b505050565b828054600181600116156101000203166002900490600052602060002090601f016020900481019282601f1061074957805160ff1916838001178555610777565b82800160010185558215610777579182015b8281111561077657825182559160200191906001019061075b565b5b50905061078491906107f6565b5090565b6107f391905b808211156107ef57600080820160006101000a81549073ffffffffffffffffffffffffffffffffffffffff02191690556001820160006107ce919061081b565b6002820160006107de919061081b565b60038201600090555060040161078e565b5090565b90565b61081891905b808211156108145760008160009055506001016107fc565b5090565b90565b50805460018160011615610100020316600290046000825580601f106108415750610860565b601f01602090049060005260206000209081019061085f91906107f6565b5b505600a165627a7a7230582044ef6b924726bfb8dbebc3e8a362e9ce78e89cd184b1b72f148841c4b267a8ea0029",
  "source": "pragma solidity ^0.4.18;\n\ncontract AddRequest{\n  struct RequestDoc {\n\t\taddress owner;\n\t\tstring title;\n\t\tstring description;\n    uint countEth;\n\t}\n\n  RequestDoc[] public requestDocs;\n\n  function addUser(string title, string description, uint countEth) public {\n    requestDocs.push(RequestDoc(msg.sender, title, description, countEth));\n  }\n\n  function returnById(uint index) public returns(address ,string , string , uint){\n    RequestDoc storage doc = requestDocs[index];\n    return (doc.owner, doc.title, doc.description, doc.countEth);\n  }\n}\n",
  "sourcePath": "/Users/alexkorotkov/Desktop/Developer/Donation/blockchain/contracts/contracts/AddRequest.sol",
  "compiler": {
    "name": "solc",
    "version": "0.4.18+commit.9cf6e910.Emscripten.clang"
  },
  "schemaVersion": "1.0.1",
  "updatedAt": "2017-12-16T11:00:24.924Z"
}