{
  "contractName": "ItemListContract",
  "abi": [
    {
      "constant": true,
      "inputs": [
        {
          "name": "code",
          "type": "uint256"
        }
      ],
      "name": "getItem",
      "outputs": [
        {
          "name": "val",
          "type": "uint256"
        }
      ],
      "payable": false,
      "stateMutability": "view",
      "type": "function"
    },
    {
      "constant": true,
      "inputs": [],
      "name": "countItemList",
      "outputs": [
        {
          "name": "count",
          "type": "uint256"
        }
      ],
      "payable": false,
      "stateMutability": "view",
      "type": "function"
    },
    {
      "constant": false,
      "inputs": [
        {
          "name": "code",
          "type": "uint256"
        }
      ],
      "name": "removeItem",
      "outputs": [],
      "payable": false,
      "stateMutability": "nonpayable",
      "type": "function"
    },
    {
      "constant": false,
      "inputs": [
        {
          "name": "val",
          "type": "uint256"
        }
      ],
      "name": "addItem",
      "outputs": [],
      "payable": false,
      "stateMutability": "nonpayable",
      "type": "function"
    },
    {
      "inputs": [],
      "payable": false,
      "stateMutability": "nonpayable",
      "type": "constructor"
    }
  ],
  "bytecode": "0x6060604052341561000f57600080fd5b60405180807f6869000000000000000000000000000000000000000000000000000000000000815250600201905060405180910390a061024e806100546000396000f300606060405260043610610062576000357c0100000000000000000000000000000000000000000000000000000000900463ffffffff1680633129e77314610067578063521bb47f1461009e57806371329171146100c7578063be634045146100ea575b600080fd5b341561007257600080fd5b610088600480803590602001909190505061010d565b6040518082815260200191505060405180910390f35b34156100a957600080fd5b6100b161012d565b6040518082815260200191505060405180910390f35b34156100d257600080fd5b6100e86004808035906020019091905050610136565b005b34156100f557600080fd5b61010b6004808035906020019091905050610169565b005b600060016000838152602001908152602001600020600001549050919050565b60008054905090565b60016000828152602001908152602001600020600080820160009055505060008081548092919060019003919050555050565b6101716101bb565b6020604051908101604052808381525090506002805480600101828161019791906101cf565b91600052602060002090016000839091909150600082015181600001555050505050565b602060405190810160405280600081525090565b8154818355818115116101f6578183600052602060002091820191016101f591906101fb565b5b505050565b61021f91905b8082111561021b5760008082016000905550600101610201565b5090565b905600a165627a7a723058201b5808a76cf1bdedc3ca874112194e0eb76b6bf182241b3645bf13abcee72baf0029",
  "source": "pragma solidity ^0.4.18;\n\ncontract ItemListContract {\n    struct item {\n        uint ivalue;\n    }\n\n    uint itemCount;\n    mapping(uint => item) itemList;\n    item[] itemArray;\n\n    function ItemListContract() public {\n        log0('hi');\n    }\n\n    function addItem(uint val) public {\n        var itemnew = item(val);\n        // log0(itemnew);\n        itemArray.push(itemnew);\n    }\n\n    function countItemList() constant public returns (uint count) {\n        return itemCount;\n    }\n\n    function removeItem(uint code) public{\n        delete itemList[code];\n        itemCount--;\n    }\n\n    function getItem(uint code) constant public returns (uint val) {\n        return (itemList[code].ivalue);\n    }\n}\n",
  "sourcePath": "/Users/alexkorotkov/Desktop/Developer/Donation/blockchain/contracts/contracts/ItemListContract.sol",
  "compiler": {
    "name": "solc",
    "version": "0.4.18+commit.9cf6e910.Emscripten.clang"
  },
  "schemaVersion": "1.0.1",
  "updatedAt": "2017-12-16T11:00:24.926Z"
}