{
  "contractName": "SendEtherToAccaunt",
  "abi": [
    {
      "constant": false,
      "inputs": [
        {
          "name": "account",
          "type": "address"
        },
        {
          "name": "title",
          "type": "string"
        },
        {
          "name": "description",
          "type": "string"
        },
        {
          "name": "countEth",
          "type": "uint256"
        }
      ],
      "name": "return1",
      "outputs": [
        {
          "name": "",
          "type": "address"
        },
        {
          "name": "",
          "type": "string"
        },
        {
          "name": "",
          "type": "string"
        },
        {
          "name": "",
          "type": "uint256"
        }
      ],
      "payable": false,
      "stateMutability": "nonpayable",
      "type": "function"
    },
    {
      "constant": true,
      "inputs": [],
      "name": "getRequestDocsNumber",
      "outputs": [
        {
          "name": "",
          "type": "uint256"
        }
      ],
      "payable": false,
      "stateMutability": "view",
      "type": "function"
    },
    {
      "constant": true,
      "inputs": [
        {
          "name": "id",
          "type": "uint256"
        }
      ],
      "name": "getRequestDocById",
      "outputs": [
        {
          "name": "",
          "type": "address"
        },
        {
          "name": "",
          "type": "string"
        },
        {
          "name": "",
          "type": "string"
        },
        {
          "name": "",
          "type": "uint256"
        }
      ],
      "payable": false,
      "stateMutability": "view",
      "type": "function"
    },
    {
      "constant": true,
      "inputs": [
        {
          "name": "",
          "type": "uint256"
        }
      ],
      "name": "requestDocs",
      "outputs": [
        {
          "name": "owner",
          "type": "address"
        },
        {
          "name": "title",
          "type": "string"
        },
        {
          "name": "description",
          "type": "string"
        },
        {
          "name": "countEth",
          "type": "uint256"
        }
      ],
      "payable": false,
      "stateMutability": "view",
      "type": "function"
    },
    {
      "constant": false,
      "inputs": [],
      "name": "getRequestDoc",
      "outputs": [
        {
          "name": "",
          "type": "address[]"
        },
        {
          "name": "",
          "type": "string[]"
        },
        {
          "name": "",
          "type": "string[]"
        },
        {
          "name": "",
          "type": "uint256[]"
        }
      ],
      "payable": false,
      "stateMutability": "nonpayable",
      "type": "function"
    },
    {
      "constant": false,
      "inputs": [
        {
          "name": "account",
          "type": "address"
        },
        {
          "name": "title",
          "type": "string"
        },
        {
          "name": "description",
          "type": "string"
        },
        {
          "name": "countEth",
          "type": "uint256"
        }
      ],
      "name": "addUser",
      "outputs": [],
      "payable": false,
      "stateMutability": "nonpayable",
      "type": "function"
    },
    {
      "constant": false,
      "inputs": [],
      "name": "depositFunds",
      "outputs": [
        {
          "name": "success",
          "type": "bool"
        }
      ],
      "payable": true,
      "stateMutability": "payable",
      "type": "function"
    },
    {
      "anonymous": false,
      "inputs": [
        {
          "indexed": false,
          "name": "sender",
          "type": "address"
        },
        {
          "indexed": false,
          "name": "amount",
          "type": "uint256"
        },
        {
          "indexed": false,
          "name": "balance",
          "type": "uint256"
        }
      ],
      "name": "LogDep",
      "type": "event"
    },
    {
      "anonymous": false,
      "inputs": [
        {
          "indexed": false,
          "name": "recipient",
          "type": "address"
        },
        {
          "indexed": false,
          "name": "amount",
          "type": "uint256"
        },
        {
          "indexed": false,
          "name": "balance",
          "type": "uint256"
        }
      ],
      "name": "LogSent",
      "type": "event"
    },
    {
      "anonymous": false,
      "inputs": [
        {
          "indexed": false,
          "name": "recipient",
          "type": "address"
        },
        {
          "indexed": false,
          "name": "amount",
          "type": "uint256"
        },
        {
          "indexed": false,
          "name": "balance",
          "type": "uint256"
        }
      ],
      "name": "LogErr",
      "type": "event"
    }
  ],
  "bytecode": "0x6060604052341561000f57600080fd5b6111598061001e6000396000f300606060405260043610610083576000357c0100000000000000000000000000000000000000000000000000000000900463ffffffff1680630ac61a0e1461008857806311f464ea1461016757806348d14067146101905780636026d154146101ca5780637d1650c614610204578063b3c2583514610230578063e2c41dbc146102f8575b600080fd5b341561009357600080fd5b61014e600480803573ffffffffffffffffffffffffffffffffffffffff1690602001909190803590602001908201803590602001908080601f0160208091040260200160405190810160405280939291908181526020018383808284378201915050505050509190803590602001908201803590602001908080601f01602080910402602001604051908101604052809392919081815260200183838082843782019150505050505091908035906020019091905050610316565b60405161015e9493929190610e91565b60405180910390f35b341561017257600080fd5b61017a610341565b6040516101879190610fea565b60405180910390f35b341561019b57600080fd5b6101b1600480803590602001909190505061034b565b6040516101c19493929190610e91565b60405180910390f35b34156101d557600080fd5b6101eb6004808035906020019091905050610547565b6040516101fb9493929190610ee4565b60405180910390f35b341561020f57600080fd5b6102176105a4565b6040516102279493929190610f6e565b60405180910390f35b341561023b57600080fd5b6102f6600480803573ffffffffffffffffffffffffffffffffffffffff1690602001909190803590602001908201803590602001908080601f0160208091040260200160405190810160405280939291908181526020018383808284378201915050505050509190803590602001908201803590602001908080601f0160208091040260200160405190810160405280939291908181526020018383808284378201915050505050509190803590602001909190505061090d565b005b610300610a02565b60405161030d9190610fcf565b60405180910390f35b6000610320610a5d565b610328610a5d565b6000878787879350935093509350945094509450949050565b6000600b54905090565b6000610355610a5d565b61035d610a5d565b6000808581548110151561036d57fe5b906000526020600020906004020160000160009054906101000a900473ffffffffffffffffffffffffffffffffffffffff166000868154811015156103ae57fe5b90600052602060002090600402016001016000878154811015156103ce57fe5b90600052602060002090600402016002016000888154811015156103ee57fe5b906000526020600020906004020160030154828054600181600116156101000203166002900480601f0160208091040260200160405190810160405280929190818152602001828054600181600116156101000203166002900480156104955780601f1061046a57610100808354040283529160200191610495565b820191906000526020600020905b81548152906001019060200180831161047857829003601f168201915b50505050509250818054600181600116156101000203166002900480601f0160208091040260200160405190810160405280929190818152602001828054600181600116156101000203166002900480156105315780601f1061050657610100808354040283529160200191610531565b820191906000526020600020905b81548152906001019060200180831161051457829003601f168201915b5050505050915093509350935093509193509193565b60008181548110151561055657fe5b90600052602060002090600402016000915090508060000160009054906101000a900473ffffffffffffffffffffffffffffffffffffffff1690806001019080600201908060030154905084565b6105ac610a71565b6105b4610a85565b6105bc610a85565b6105c4610a99565b6105cc610a71565b6105d4610a85565b6105dc610a85565b6105e4610a99565b60008060016040518059106105f65750595b9080825280602002602001820160405250955060016040518059106106185750595b90808252806020026020018201604052801561064e57816020015b61063b610aad565b8152602001906001900390816106335790505b50945060016040518059106106605750595b90808252806020026020018201604052801561069657816020015b610683610aad565b81526020019060019003908161067b5790505b50935060016040518059106106a85750595b90808252806020026020018201604052509250600091505b60018210156108f5576000828154811015156106d857fe5b906000526020600020906004020190508060000160009054906101000a900473ffffffffffffffffffffffffffffffffffffffff16868381518110151561071b57fe5b9060200190602002019073ffffffffffffffffffffffffffffffffffffffff16908173ffffffffffffffffffffffffffffffffffffffff1681525050806001018054600181600116156101000203166002900480601f0160208091040260200160405190810160405280929190818152602001828054600181600116156101000203166002900480156107ef5780601f106107c4576101008083540402835291602001916107ef565b820191906000526020600020905b8154815290600101906020018083116107d257829003601f168201915b5050505050858381518110151561080257fe5b90602001906020020181905250806002018054600181600116156101000203166002900480601f0160208091040260200160405190810160405280929190818152602001828054600181600116156101000203166002900480156108a75780601f1061087c576101008083540402835291602001916108a7565b820191906000526020600020905b81548152906001019060200180831161088a57829003601f168201915b505050505084838151811015156108ba57fe5b90602001906020020181905250806003015483838151811015156108da57fe5b906020019060200201818152505081806001019250506106c0565b85858585995099509950995050505050505090919293565b600080548060010182816109219190610ac1565b916000526020600020906004020160006080604051908101604052808873ffffffffffffffffffffffffffffffffffffffff16815260200187815260200186815260200185815250909190915060008201518160000160006101000a81548173ffffffffffffffffffffffffffffffffffffffff021916908373ffffffffffffffffffffffffffffffffffffffff16021790555060208201518160010190805190602001906109d1929190610af3565b5060408201518160020190805190602001906109ee929190610af3565b506060820151816003015550505050505050565b60007f5f0e5863a4065968a9a18554ebb203599c3a37ce15e0ef324300e5d76729522633343073ffffffffffffffffffffffffffffffffffffffff1631604051610a4e93929190610f37565b60405180910390a16001905090565b602060405190810160405280600081525090565b602060405190810160405280600081525090565b602060405190810160405280600081525090565b602060405190810160405280600081525090565b602060405190810160405280600081525090565b815481835581811511610aee57600402816004028360005260206000209182019101610aed9190610b73565b5b505050565b828054600181600116156101000203166002900490600052602060002090601f016020900481019282601f10610b3457805160ff1916838001178555610b62565b82800160010185558215610b62579182015b82811115610b61578251825591602001919060010190610b46565b5b509050610b6f9190610be1565b5090565b610bde91905b80821115610bda57600080820160006101000a81549073ffffffffffffffffffffffffffffffffffffffff0219169055600182016000610bb99190610c06565b600282016000610bc99190610c06565b600382016000905550600401610b79565b5090565b90565b610c0391905b80821115610bff576000816000905550600101610be7565b5090565b90565b50805460018160011615610100020316600290046000825580601f10610c2c5750610c4b565b601f016020900490600052602060002090810190610c4a9190610be1565b5b50565b610c578161109c565b82525050565b6000610c688261103e565b808452602084019350610c7a83611005565b60005b82811015610cac57610c90868351610c4e565b610c9982611075565b9150602086019550600181019050610c7d565b50849250505092915050565b6000610cc382611049565b80845260208401935083602082028501610cdc85611012565b60005b84811015610d15578383038852610cf7838351610dc6565b9250610d0282611082565b9150602088019750600181019050610cdf565b508196508694505050505092915050565b6000610d3182611054565b808452602084019350610d438361101f565b60005b82811015610d7557610d59868351610e82565b610d628261108f565b9150602086019550600181019050610d46565b50849250505092915050565b610d8a816110bc565b82525050565b6000610d9b8261106a565b808452610daf8160208601602086016110d2565b610db88161110e565b602085010191505092915050565b6000610dd18261105f565b808452610de58160208601602086016110d2565b610dee8161110e565b602085010191505092915050565b600081546001811660008114610e195760018114610e3957610e7a565b607f600283041680865260ff198316602087015260408601935050610e7a565b60028204808652602086019550610e4f8561102c565b60005b82811015610e7157815481890152600182019150602081019050610e52565b80880195505050505b505092915050565b610e8b816110c8565b82525050565b6000608082019050610ea66000830187610c4e565b8181036020830152610eb88186610d90565b90508181036040830152610ecc8185610d90565b9050610edb6060830184610e82565b95945050505050565b6000608082019050610ef96000830187610c4e565b8181036020830152610f0b8186610dfc565b90508181036040830152610f1f8185610dfc565b9050610f2e6060830184610e82565b95945050505050565b6000606082019050610f4c6000830186610c4e565b610f596020830185610e82565b610f666040830184610e82565b949350505050565b60006080820190508181036000830152610f888187610c5d565b90508181036020830152610f9c8186610cb8565b90508181036040830152610fb08185610cb8565b90508181036060830152610fc48184610d26565b905095945050505050565b6000602082019050610fe46000830184610d81565b92915050565b6000602082019050610fff6000830184610e82565b92915050565b6000602082019050919050565b6000602082019050919050565b6000602082019050919050565b60008160005260206000209050919050565b600081519050919050565b600081519050919050565b600081519050919050565b600081519050919050565b600081519050919050565b6000602082019050919050565b6000602082019050919050565b6000602082019050919050565b600073ffffffffffffffffffffffffffffffffffffffff82169050919050565b60008115159050919050565b6000819050919050565b60005b838110156110f05780820151818401526020810190506110d5565b8381146000811461110057611107565b6000858501525b5050505050565b6000601f19601f83011690509190505600a265627a7a72305820f7a11181a776fdc763239daba74320c34caced93a72b62f071029fd68b1590246c6578706572696d656e74616cf50037",
  "source": "pragma solidity ^0.4.18;\npragma experimental ABIEncoderV2;\n\ncontract SendEtherToAccaunt{\n  struct RequestDoc {\n\t\taddress owner;\n\t\tstring title;\n\t\tstring description;\n    uint countEth;\n\t}\n\n  RequestDoc[] public requestDocs;\n  uint[10] myArray;\n  /*mapping (uint => myArray) funders;*/\n  uint numRequestDoc;\n  /*mapping (uint => RequestDoc) requestDocs;*/\n\n  event LogDep (address sender,    uint amount, uint balance);\n  event LogSent(address recipient, uint amount, uint balance);\n  event LogErr (address recipient, uint amount, uint balance);\n\n  function addUser(address account,string title, string description, uint countEth) public {\n    requestDocs.push(RequestDoc(account, title, description, countEth));\n  }\n\n  function return1(\n    address account,\n    string title,\n    string description,\n    uint countEth) public returns (address ,string , string , uint ){\n    return (account, title,  description,  countEth);\n  }\n\n  function getRequestDocsNumber() public constant returns (uint) {\n    return numRequestDoc;\n  }\n\n  function getRequestDoc() public returns (address[], string[], string[], uint[]){\n        address[] memory owner1 = new address[](1);\n        string[] memory title1 = new string[](1);\n        string[] memory description1 = new string[](1);\n        uint[] memory countEth1 = new uint[](1);\n\n        for (uint i = 0; i < 1; i++) {\n            RequestDoc storage requestDoc = requestDocs[i];\n            owner1[i] = requestDoc.owner;\n            title1[i] = requestDoc.title;\n            description1[i] = requestDoc.description;\n            countEth1[i] = requestDoc.countEth;\n        }\n\n        return (owner1, title1, description1, countEth1);\n    }\n\n  /*function SendEtherToAccaunt() public {\n    user=msg.sender;\n  }*/\n\n  function depositFunds() public payable returns(bool success) {\n    LogDep(msg.sender, msg.value, this.balance);\n    return true;\n  }\n\n  /*function addUser(bytes32 _name) public {\n    name[i]=_name;\n    customer[i]=msg.sender;\n    i++;\n  }*/\n\n  /*function getRequestDoc() constant public returns(RequestDoc[]){\n    return requestDocs;\n  }*/\n\n  function getRequestDocById(uint id) public constant returns\n    ( \t\t//id в мапке\n    address, //владелец\n    string, //содержимое\n    string,\n    uint\n    ) //фио\n  {\n    return (requestDocs[id].owner, requestDocs[id].title, requestDocs[id].description, requestDocs[id].countEth);\n  }\n\n\n\n  /*function reward() public {\n\n    for ( uint k = 0; k<10; k++) {\n        if(customer[k].send(10)) {\n            LogSent(customer[k], 1, this.balance);\n        } else {\n            LogErr(customer[k], 1, this.balance);\n        }\n    }\n  }*/\n}\n\n// План проекта\n// Пользователь добавляет свой аккаунт в список +  title + description + количество нужных денег.\n// Будет функция для вывода списка нуждающих\n// Функция поиска человека по id/PrivateKey\n// Функция для добавления количества эфира + кому и передача эфира в кошелек ethera\n// Функция для проверки , хватает ли денег для пожертвования\n//\n",
  "sourcePath": "/Users/alexkorotkov/Desktop/Developer/Donation/blockchain/contracts/contracts/SendEtherToAccaunt.sol",
  "compiler": {
    "name": "solc",
    "version": "0.4.18+commit.9cf6e910.Emscripten.clang"
  },
  "schemaVersion": "1.0.1",
  "updatedAt": "2017-12-16T11:00:24.926Z"
}