{
  "contractName": "SendEther",
  "abi": [
    {
      "constant": true,
      "inputs": [],
      "name": "get_address",
      "outputs": [
        {
          "name": "",
          "type": "address[10]"
        }
      ],
      "payable": false,
      "stateMutability": "view",
      "type": "function"
    },
    {
      "constant": false,
      "inputs": [],
      "name": "reward",
      "outputs": [],
      "payable": false,
      "stateMutability": "nonpayable",
      "type": "function"
    },
    {
      "constant": false,
      "inputs": [
        {
          "name": "_name",
          "type": "bytes32"
        }
      ],
      "name": "add",
      "outputs": [],
      "payable": false,
      "stateMutability": "nonpayable",
      "type": "function"
    },
    {
      "constant": true,
      "inputs": [],
      "name": "user",
      "outputs": [
        {
          "name": "",
          "type": "address"
        }
      ],
      "payable": false,
      "stateMutability": "view",
      "type": "function"
    },
    {
      "constant": false,
      "inputs": [],
      "name": "depositFunds",
      "outputs": [
        {
          "name": "success",
          "type": "bool"
        }
      ],
      "payable": true,
      "stateMutability": "payable",
      "type": "function"
    },
    {
      "constant": true,
      "inputs": [],
      "name": "i",
      "outputs": [
        {
          "name": "",
          "type": "uint256"
        }
      ],
      "payable": false,
      "stateMutability": "view",
      "type": "function"
    },
    {
      "inputs": [],
      "payable": false,
      "stateMutability": "nonpayable",
      "type": "constructor"
    },
    {
      "anonymous": false,
      "inputs": [
        {
          "indexed": false,
          "name": "sender",
          "type": "address"
        },
        {
          "indexed": false,
          "name": "amount",
          "type": "uint256"
        },
        {
          "indexed": false,
          "name": "balance",
          "type": "uint256"
        }
      ],
      "name": "LogDep",
      "type": "event"
    },
    {
      "anonymous": false,
      "inputs": [
        {
          "indexed": false,
          "name": "recipient",
          "type": "address"
        },
        {
          "indexed": false,
          "name": "amount",
          "type": "uint256"
        },
        {
          "indexed": false,
          "name": "balance",
          "type": "uint256"
        }
      ],
      "name": "LogSent",
      "type": "event"
    },
    {
      "anonymous": false,
      "inputs": [
        {
          "indexed": false,
          "name": "recipient",
          "type": "address"
        },
        {
          "indexed": false,
          "name": "amount",
          "type": "uint256"
        },
        {
          "indexed": false,
          "name": "balance",
          "type": "uint256"
        }
      ],
      "name": "LogErr",
      "type": "event"
    }
  ],
  "bytecode": "0x60606040526000601555341561001457600080fd5b336000806101000a81548173ffffffffffffffffffffffffffffffffffffffff021916908373ffffffffffffffffffffffffffffffffffffffff1602179055506105db806100636000396000f300606060405260043610610078576000357c0100000000000000000000000000000000000000000000000000000000900463ffffffff1680630131222f1461007d578063228cb733146100ce578063446bffba146100e35780634f8632ba1461010a578063e2c41dbc1461015f578063e5aa3d5814610181575b600080fd5b341561008857600080fd5b6100906101aa565b6040518082600a60200280838360005b838110156100bb5780820151818401526020810190506100a0565b5050505090500191505060405180910390f35b34156100d957600080fd5b6100e161022b565b005b34156100ee57600080fd5b610108600480803560001916906020019091905050610431565b005b341561011557600080fd5b61011d6104b2565b604051808273ffffffffffffffffffffffffffffffffffffffff1673ffffffffffffffffffffffffffffffffffffffff16815260200191505060405180910390f35b6101676104d7565b604051808215151515815260200191505060405180910390f35b341561018c57600080fd5b61019461056a565b6040518082815260200191505060405180910390f35b6101b2610570565b600b600a806020026040519081016040528092919082600a8015610221576020028201915b8160009054906101000a900473ffffffffffffffffffffffffffffffffffffffff1673ffffffffffffffffffffffffffffffffffffffff16815260200190600101908083116101d7575b5050505050905090565b60008090505b600a81101561042e57600b81600a8110151561024957fe5b0160009054906101000a900473ffffffffffffffffffffffffffffffffffffffff1673ffffffffffffffffffffffffffffffffffffffff166108fc600a9081150290604051600060405180830381858888f1935050505015610365577f7e7373a53cfad5cb96dcc248b681190765785eca4876effdac1a901f08c039a0600b82600a811015156102d557fe5b0160009054906101000a900473ffffffffffffffffffffffffffffffffffffffff1660013073ffffffffffffffffffffffffffffffffffffffff1631604051808473ffffffffffffffffffffffffffffffffffffffff1673ffffffffffffffffffffffffffffffffffffffff168152602001838152602001828152602001935050505060405180910390a1610421565b7f78eb2e0c3f0e7feb7337d0c94f7cd1ecd4d7925fe33b76c784d9748a75347818600b82600a8110151561039557fe5b0160009054906101000a900473ffffffffffffffffffffffffffffffffffffffff1660013073ffffffffffffffffffffffffffffffffffffffff1631604051808473ffffffffffffffffffffffffffffffffffffffff1673ffffffffffffffffffffffffffffffffffffffff168152602001838152602001828152602001935050505060405180910390a15b8080600101915050610231565b50565b806001601554600a8110151561044357fe5b01816000191690555033600b601554600a8110151561045e57fe5b0160006101000a81548173ffffffffffffffffffffffffffffffffffffffff021916908373ffffffffffffffffffffffffffffffffffffffff16021790555060156000815480929190600101919050555050565b6000809054906101000a900473ffffffffffffffffffffffffffffffffffffffff1681565b60007f5f0e5863a4065968a9a18554ebb203599c3a37ce15e0ef324300e5d76729522633343073ffffffffffffffffffffffffffffffffffffffff1631604051808473ffffffffffffffffffffffffffffffffffffffff1673ffffffffffffffffffffffffffffffffffffffff168152602001838152602001828152602001935050505060405180910390a16001905090565b60155481565b61014060405190810160405280600a905b600073ffffffffffffffffffffffffffffffffffffffff1681526020019060019003908161058157905050905600a165627a7a7230582000ca1f772ade08007a6d74681169221a1d97bfbbcfeb2538b56008d3b39c0ba80029",
  "source": "pragma solidity ^0.4.18;\n\n\ncontract SendEther{\n\n  address public user;\n  bytes32[10] name;\n  address[10] customer;\n  uint public i=0;\n\n  event LogDep (address sender,    uint amount, uint balance);\n  event LogSent(address recipient, uint amount, uint balance);\n  event LogErr (address recipient, uint amount, uint balance);\n\n  function SendEther() public {\n\n    user=msg.sender;\n  }\n\n  function depositFunds() public payable returns(bool success) {\n    LogDep(msg.sender, msg.value, this.balance);\n    return true;\n  }\n\n  function add(bytes32 _name) public {\n    name[i]=_name;\n    customer[i]=msg.sender;\n    i++;\n  }\n\n  function get_address() constant public returns(address[10]){\n    return customer;\n  }\n\n  function reward() public {\n\n    for ( uint k = 0; k<10; k++) {\n        if(customer[k].send(10)) {\n            LogSent(customer[k], 1, this.balance);\n        } else {\n            LogErr(customer[k], 1, this.balance);\n        }\n    }\n  }\n}\n",
  "sourcePath": "/Users/alexkorotkov/Desktop/Developer/Donation/blockchain/contracts/contracts/SendEther.sol",
  "compiler": {
    "name": "solc",
    "version": "0.4.18+commit.9cf6e910.Emscripten.clang"
  },
  "schemaVersion": "1.0.1",
  "updatedAt": "2017-12-16T11:00:24.926Z"
}